{"abi":[{"inputs":[{"internalType":"address","name":"_dappTOkenAdress","type":"address"}],"stateMutability":"nonpayable","type":"constructor","name":"constructor"},{"anonymous":false,"inputs":[{"indexed":true,"internalType":"address","name":"previousOwner","type":"address"},{"indexed":true,"internalType":"address","name":"newOwner","type":"address"}],"name":"OwnershipTransferred","type":"event"},{"inputs":[{"internalType":"address","name":"_token","type":"address"}],"name":"addAllowedTokens","outputs":[],"stateMutability":"nonpayable","type":"function"},{"inputs":[{"internalType":"uint256","name":"","type":"uint256"}],"name":"allowedTokens","outputs":[{"internalType":"address","name":"","type":"address"}],"stateMutability":"view","type":"function"},{"inputs":[],"name":"dappToken","outputs":[{"internalType":"contract IERC20","name":"","type":"address"}],"stateMutability":"view","type":"function"},{"inputs":[{"internalType":"address","name":"_token","type":"address"}],"name":"getTokenValue","outputs":[{"internalType":"uint256","name":"","type":"uint256"},{"internalType":"uint256","name":"","type":"uint256"}],"stateMutability":"view","type":"function"},{"inputs":[{"internalType":"address","name":"_recepient","type":"address"},{"internalType":"address","name":"_token","type":"address"}],"name":"getUserSingleTokenTotalValue","outputs":[{"internalType":"uint256","name":"","type":"uint256"}],"stateMutability":"view","type":"function"},{"inputs":[{"internalType":"address","name":"_recepient","type":"address"}],"name":"getUserTotalValue","outputs":[{"internalType":"uint256","name":"","type":"uint256"}],"stateMutability":"view","type":"function"},{"inputs":[{"internalType":"address","name":"_token","type":"address"}],"name":"isTokenAllowed","outputs":[{"internalType":"bool","name":"","type":"bool"}],"stateMutability":"view","type":"function"},{"inputs":[],"name":"issueToken","outputs":[],"stateMutability":"nonpayable","type":"function"},{"inputs":[],"name":"owner","outputs":[{"internalType":"address","name":"","type":"address"}],"stateMutability":"view","type":"function"},{"inputs":[],"name":"renounceOwnership","outputs":[],"stateMutability":"nonpayable","type":"function"},{"inputs":[{"internalType":"address","name":"_token","type":"address"},{"internalType":"address","name":"_priceFeed","type":"address"}],"name":"setPriceFeedAddress","outputs":[],"stateMutability":"nonpayable","type":"function"},{"inputs":[{"internalType":"uint256","name":"_amount","type":"uint256"},{"internalType":"address","name":"_token","type":"address"}],"name":"stakeToken","outputs":[],"stateMutability":"nonpayable","type":"function"},{"inputs":[{"internalType":"uint256","name":"","type":"uint256"}],"name":"stakers","outputs":[{"internalType":"address","name":"","type":"address"}],"stateMutability":"view","type":"function"},{"inputs":[{"internalType":"address","name":"","type":"address"}],"name":"tokenToPriceFeedAddress","outputs":[{"internalType":"address","name":"","type":"address"}],"stateMutability":"view","type":"function"},{"inputs":[{"internalType":"address","name":"","type":"address"},{"internalType":"address","name":"","type":"address"}],"name":"tokenToStakerToAmount","outputs":[{"internalType":"uint256","name":"","type":"uint256"}],"stateMutability":"view","type":"function"},{"inputs":[{"internalType":"address","name":"newOwner","type":"address"}],"name":"transferOwnership","outputs":[],"stateMutability":"nonpayable","type":"function"},{"inputs":[{"internalType":"address","name":"_token","type":"address"}],"name":"unStakeTokens","outputs":[],"stateMutability":"nonpayable","type":"function"},{"inputs":[{"internalType":"address","name":"","type":"address"}],"name":"uniqueTokensStaked","outputs":[{"internalType":"uint256","name":"","type":"uint256"}],"stateMutability":"view","type":"function"}],"bytecode":"608060405234801561001057600080fd5b5060405161103a38038061103a83398101604081905261002f916100ad565b6100383361005d565b600680546001600160a01b0319166001600160a01b03929092169190911790556100dd565b600080546001600160a01b038381166001600160a01b0319831681178455604051919092169283917f8be0079c531659141344cd1fd0a4f28419497f9722a3daafe3b4186f6b6457e09190a35050565b6000602082840312156100bf57600080fd5b81516001600160a01b03811681146100d657600080fd5b9392505050565b610f4e806100ec6000396000f3fe608060405234801561001057600080fd5b50600436106101165760003560e01c8063a1fdc0fd116100a2578063f1c5d6c211610071578063f1c5d6c21461024c578063f2fde38b14610274578063f40f1d9414610287578063f9eaee0d146102b0578063fd5e6dd1146102d357600080fd5b8063a1fdc0fd146101f3578063af3f5e2214610206578063b83e023414610219578063c54212301461023957600080fd5b806375f976aa116100e957806375f976aa1461017b5780637f073e95146101b45780638da5cb5b146101c75780639ee30600146101d8578063a1ee8c78146101eb57600080fd5b8063171e44ea1461011b5780635e5f2e26146101305780635eb186f814610160578063715018a614610173575b600080fd5b61012e610129366004610bfc565b6102e6565b005b61014361013e366004610c1e565b61036b565b6040516001600160a01b0390911681526020015b60405180910390f35b600654610143906001600160a01b031681565b61012e610395565b6101a6610189366004610c37565b600160209081526000928352604080842090915290825290205481565b604051908152602001610157565b6101a66101c2366004610c37565b6103cb565b6000546001600160a01b0316610143565b61012e6101e6366004610c6a565b610452565b61012e61062e565b61012e610201366004610c37565b61072b565b6101a6610214366004610bfc565b610783565b6101a6610227366004610bfc565b60026020526000908152604090205481565b61012e610247366004610bfc565b6107e8565b61025f61025a366004610bfc565b610918565b60408051928352602083019190915201610157565b61012e610282366004610bfc565b610a19565b610143610295366004610bfc565b6003602052600090815260409020546001600160a01b031681565b6102c36102be366004610bfc565b610ab1565b6040519015158152602001610157565b6101436102e1366004610c1e565b610b15565b6000546001600160a01b031633146103195760405162461bcd60e51b815260040161031090610c8d565b60405180910390fd5b600580546001810182556000919091527f036b6384b5eca791c62761152d0c79bb0604c104a5fb6f4eb0703f3154bb3db00180546001600160a01b0319166001600160a01b0392909216919091179055565b6005818154811061037b57600080fd5b6000918252602090912001546001600160a01b0316905081565b6000546001600160a01b031633146103bf5760405162461bcd60e51b815260040161031090610c8d565b6103c96000610b25565b565b6001600160a01b0382166000908152600260205260408120546103f05750600061044c565b6000806103fc84610918565b909250905061040c81600a610dbc565b6001600160a01b038086166000908152600160209081526040808320938a168352929052205461043d908490610dc8565b6104479190610de7565b925050505b92915050565b600082116104a25760405162461bcd60e51b815260206004820152601d60248201527f414d6f756e74206d757374206265206d6f7265207468616e207a65726f0000006044820152606401610310565b6104ab81610ab1565b6105015760405162461bcd60e51b815260206004820152602160248201527f5468697320746f6b656e2063757272656e746c79206e6f7420616c6c6f7765646044820152602160f81b6064820152608401610310565b6040516323b872dd60e01b8152336004820152306024820152604481018390526001600160a01b038216906323b872dd906064016020604051808303816000875af1158015610554573d6000803e3d6000fd5b505050506040513d601f19601f820116820180604052508101906105789190610e09565b506105833382610b75565b6001600160a01b03811660009081526001602090815260408083203384529091529020546105b2908390610e2b565b6001600160a01b03821660009081526001602081815260408084203385528252808420949094556002905291902054141561062a57600480546001810182556000919091527f8a35acfbc15ff81a39ae7d344fd709f28e8600b4aa8c65c6b64bfe7fe36bd19b0180546001600160a01b031916331790555b5050565b6000546001600160a01b031633146106585760405162461bcd60e51b815260040161031090610c8d565b60005b6004548110156107285760006004828154811061067a5761067a610e43565b60009182526020822001546001600160a01b0316915061069982610783565b60065460405163a9059cbb60e01b81526001600160a01b0385811660048301526024820184905292935091169063a9059cbb906044016020604051808303816000875af11580156106ee573d6000803e3d6000fd5b505050506040513d601f19601f820116820180604052508101906107129190610e09565b505050808061072090610e59565b91505061065b565b50565b6000546001600160a01b031633146107555760405162461bcd60e51b815260040161031090610c8d565b6001600160a01b03918216600090815260036020526040902080546001600160a01b03191691909216179055565b600080805b6005548110156107e1576107c384600583815481106107a9576107a9610e43565b6000918252602090912001546001600160a01b03166103cb565b6107cd9083610e2b565b9150806107d981610e59565b915050610788565b5092915050565b6001600160a01b0381166000908152600160209081526040808320338452909152902054806108595760405162461bcd60e51b815260206004820152601e60248201527f5374616b696e672042616c616e63652063616e6e6f74206265207a65726f00006044820152606401610310565b60405163a9059cbb60e01b8152336004820152602481018290526001600160a01b0383169063a9059cbb906044016020604051808303816000875af11580156108a6573d6000803e3d6000fd5b505050506040513d601f19601f820116820180604052508101906108ca9190610e09565b506001600160a01b038216600090815260016020818152604080842033855282528084208490556002909152909120546109049190610e74565b336000908152600260205260409020555050565b6001600160a01b03808216600090815260036020526040808220548151633fabe5a360e21b815291519293849391169182918491839163feaf968c9160048082019260a0929091908290030181865afa158015610979573d6000803e3d6000fd5b505050506040513d601f19601f8201168201806040525081019061099d9190610ea5565b5050509150506000826001600160a01b031663313ce5676040518163ffffffff1660e01b8152600401602060405180830381865afa1580156109e3573d6000803e3d6000fd5b505050506040513d601f19601f82011682018060405250810190610a079190610ef5565b919760ff909216965090945050505050565b6000546001600160a01b03163314610a435760405162461bcd60e51b815260040161031090610c8d565b6001600160a01b038116610aa85760405162461bcd60e51b815260206004820152602660248201527f4f776e61626c653a206e6577206f776e657220697320746865207a65726f206160448201526564647265737360d01b6064820152608401610310565b61072881610b25565b6000805b600554811015610b0c5760058181548110610ad257610ad2610e43565b6000918252602090912001546001600160a01b0384811691161415610afa5750600192915050565b80610b0481610e59565b915050610ab5565b50600092915050565b6004818154811061037b57600080fd5b600080546001600160a01b038381166001600160a01b0319831681178455604051919092169283917f8be0079c531659141344cd1fd0a4f28419497f9722a3daafe3b4186f6b6457e09190a35050565b6001600160a01b0380821660009081526001602090815260408083209386168352929052205461062a576001600160a01b038216600090815260026020526040902054610bc3906001610e2b565b6001600160a01b0383166000908152600260205260409020555050565b80356001600160a01b0381168114610bf757600080fd5b919050565b600060208284031215610c0e57600080fd5b610c1782610be0565b9392505050565b600060208284031215610c3057600080fd5b5035919050565b60008060408385031215610c4a57600080fd5b610c5383610be0565b9150610c6160208401610be0565b90509250929050565b60008060408385031215610c7d57600080fd5b82359150610c6160208401610be0565b6020808252818101527f4f776e61626c653a2063616c6c6572206973206e6f7420746865206f776e6572604082015260600190565b634e487b7160e01b600052601160045260246000fd5b600181815b80851115610d13578160001904821115610cf957610cf9610cc2565b80851615610d0657918102915b93841c9390800290610cdd565b509250929050565b600082610d2a5750600161044c565b81610d375750600061044c565b8160018114610d4d5760028114610d5757610d73565b600191505061044c565b60ff841115610d6857610d68610cc2565b50506001821b61044c565b5060208310610133831016604e8410600b8410161715610d96575081810a61044c565b610da08383610cd8565b8060001904821115610db457610db4610cc2565b029392505050565b6000610c178383610d1b565b6000816000190483118215151615610de257610de2610cc2565b500290565b600082610e0457634e487b7160e01b600052601260045260246000fd5b500490565b600060208284031215610e1b57600080fd5b81518015158114610c1757600080fd5b60008219821115610e3e57610e3e610cc2565b500190565b634e487b7160e01b600052603260045260246000fd5b6000600019821415610e6d57610e6d610cc2565b5060010190565b600082821015610e8657610e86610cc2565b500390565b805169ffffffffffffffffffff81168114610bf757600080fd5b600080600080600060a08688031215610ebd57600080fd5b610ec686610e8b565b9450602086015193506040860151925060608601519150610ee960808701610e8b565b90509295509295909350565b600060208284031215610f0757600080fd5b815160ff81168114610c1757600080fdfea2646970667358221220db05565f35e432298f3b8200e701198bdc38b638171eb1a24f24f76043d0f39264736f6c634300080b0033","bytecodeSha1":"e0522b2e58a39a1a127a4a6408e606c359abb9ee","compiler":{"evm_version":"istanbul","optimizer":{"enabled":true,"runs":200},"version":"0.8.11+commit.d7f03943"},"contractName":"TokenFarm","language":"Solidity","natspec":{"kind":"dev","methods":{"owner()":{"details":"Returns the address of the current owner."},"renounceOwnership()":{"details":"Leaves the contract without owner. It will not be possible to call `onlyOwner` functions anymore. Can only be called by the current owner. NOTE: Renouncing ownership will leave the contract without an owner, thereby removing any functionality that is only available to the owner."},"tokenToStakerToAmount(address,address)":{"notice":"stakeToken unStakeToken issueToken addAllowedToken getETHValue"},"transferOwnership(address)":{"details":"Transfers ownership of the contract to a new account (`newOwner`). Can only be called by the current owner."}},"version":1},"opcodes":"PUSH1 0x80 PUSH1 0x40 MSTORE CALLVALUE DUP1 ISZERO PUSH2 0x10 JUMPI PUSH1 0x0 DUP1 REVERT JUMPDEST POP PUSH1 0x4 CALLDATASIZE LT PUSH2 0x116 JUMPI PUSH1 0x0 CALLDATALOAD PUSH1 0xE0 SHR DUP1 PUSH4 0xA1FDC0FD GT PUSH2 0xA2 JUMPI DUP1 PUSH4 0xF1C5D6C2 GT PUSH2 0x71 JUMPI DUP1 PUSH4 0xF1C5D6C2 EQ PUSH2 0x24C JUMPI DUP1 PUSH4 0xF2FDE38B EQ PUSH2 0x274 JUMPI DUP1 PUSH4 0xF40F1D94 EQ PUSH2 0x287 JUMPI DUP1 PUSH4 0xF9EAEE0D EQ PUSH2 0x2B0 JUMPI DUP1 PUSH4 0xFD5E6DD1 EQ PUSH2 0x2D3 JUMPI PUSH1 0x0 DUP1 REVERT JUMPDEST DUP1 PUSH4 0xA1FDC0FD EQ PUSH2 0x1F3 JUMPI DUP1 PUSH4 0xAF3F5E22 EQ PUSH2 0x206 JUMPI DUP1 PUSH4 0xB83E0234 EQ PUSH2 0x219 JUMPI DUP1 PUSH4 0xC5421230 EQ PUSH2 0x239 JUMPI PUSH1 0x0 DUP1 REVERT JUMPDEST DUP1 PUSH4 0x75F976AA GT PUSH2 0xE9 JUMPI DUP1 PUSH4 0x75F976AA EQ PUSH2 0x17B JUMPI DUP1 PUSH4 0x7F073E95 EQ PUSH2 0x1B4 JUMPI DUP1 PUSH4 0x8DA5CB5B EQ PUSH2 0x1C7 JUMPI DUP1 PUSH4 0x9EE30600 EQ PUSH2 0x1D8 JUMPI DUP1 PUSH4 0xA1EE8C78 EQ PUSH2 0x1EB JUMPI PUSH1 0x0 DUP1 REVERT JUMPDEST DUP1 PUSH4 0x171E44EA EQ PUSH2 0x11B JUMPI DUP1 PUSH4 0x5E5F2E26 EQ PUSH2 0x130 JUMPI DUP1 PUSH4 0x5EB186F8 EQ PUSH2 0x160 JUMPI DUP1 PUSH4 0x715018A6 EQ PUSH2 0x173 JUMPI JUMPDEST PUSH1 0x0 DUP1 REVERT JUMPDEST PUSH2 0x12E PUSH2 0x129 CALLDATASIZE PUSH1 0x4 PUSH2 0xBFC JUMP JUMPDEST PUSH2 0x2E6 JUMP JUMPDEST STOP JUMPDEST PUSH2 0x143 PUSH2 0x13E CALLDATASIZE PUSH1 0x4 PUSH2 0xC1E JUMP JUMPDEST PUSH2 0x36B JUMP JUMPDEST PUSH1 0x40 MLOAD PUSH1 0x1 PUSH1 0x1 PUSH1 0xA0 SHL SUB SWAP1 SWAP2 AND DUP2 MSTORE PUSH1 0x20 ADD JUMPDEST PUSH1 0x40 MLOAD DUP1 SWAP2 SUB SWAP1 RETURN JUMPDEST PUSH1 0x6 SLOAD PUSH2 0x143 SWAP1 PUSH1 0x1 PUSH1 0x1 PUSH1 0xA0 SHL SUB AND DUP2 JUMP JUMPDEST PUSH2 0x12E PUSH2 0x395 JUMP JUMPDEST PUSH2 0x1A6 PUSH2 0x189 CALLDATASIZE PUSH1 0x4 PUSH2 0xC37 JUMP JUMPDEST PUSH1 0x1 PUSH1 0x20 SWAP1 DUP2 MSTORE PUSH1 0x0 SWAP3 DUP4 MSTORE PUSH1 0x40 DUP1 DUP5 KECCAK256 SWAP1 SWAP2 MSTORE SWAP1 DUP3 MSTORE SWAP1 KECCAK256 SLOAD DUP2 JUMP JUMPDEST PUSH1 0x40 MLOAD SWAP1 DUP2 MSTORE PUSH1 0x20 ADD PUSH2 0x157 JUMP JUMPDEST PUSH2 0x1A6 PUSH2 0x1C2 CALLDATASIZE PUSH1 0x4 PUSH2 0xC37 JUMP JUMPDEST PUSH2 0x3CB JUMP JUMPDEST PUSH1 0x0 SLOAD PUSH1 0x1 PUSH1 0x1 PUSH1 0xA0 SHL SUB AND PUSH2 0x143 JUMP JUMPDEST PUSH2 0x12E PUSH2 0x1E6 CALLDATASIZE PUSH1 0x4 PUSH2 0xC6A JUMP JUMPDEST PUSH2 0x452 JUMP JUMPDEST PUSH2 0x12E PUSH2 0x62E JUMP JUMPDEST PUSH2 0x12E PUSH2 0x201 CALLDATASIZE PUSH1 0x4 PUSH2 0xC37 JUMP JUMPDEST PUSH2 0x72B JUMP JUMPDEST PUSH2 0x1A6 PUSH2 0x214 CALLDATASIZE PUSH1 0x4 PUSH2 0xBFC JUMP JUMPDEST PUSH2 0x783 JUMP JUMPDEST PUSH2 0x1A6 PUSH2 0x227 CALLDATASIZE PUSH1 0x4 PUSH2 0xBFC JUMP JUMPDEST PUSH1 0x2 PUSH1 0x20 MSTORE PUSH1 0x0 SWAP1 DUP2 MSTORE PUSH1 0x40 SWAP1 KECCAK256 SLOAD DUP2 JUMP JUMPDEST PUSH2 0x12E PUSH2 0x247 CALLDATASIZE PUSH1 0x4 PUSH2 0xBFC JUMP JUMPDEST PUSH2 0x7E8 JUMP JUMPDEST PUSH2 0x25F PUSH2 0x25A CALLDATASIZE PUSH1 0x4 PUSH2 0xBFC JUMP JUMPDEST PUSH2 0x918 JUMP JUMPDEST PUSH1 0x40 DUP1 MLOAD SWAP3 DUP4 MSTORE PUSH1 0x20 DUP4 ADD SWAP2 SWAP1 SWAP2 MSTORE ADD PUSH2 0x157 JUMP JUMPDEST PUSH2 0x12E PUSH2 0x282 CALLDATASIZE PUSH1 0x4 PUSH2 0xBFC JUMP JUMPDEST PUSH2 0xA19 JUMP JUMPDEST PUSH2 0x143 PUSH2 0x295 CALLDATASIZE PUSH1 0x4 PUSH2 0xBFC JUMP JUMPDEST PUSH1 0x3 PUSH1 0x20 MSTORE PUSH1 0x0 SWAP1 DUP2 MSTORE PUSH1 0x40 SWAP1 KECCAK256 SLOAD PUSH1 0x1 PUSH1 0x1 PUSH1 0xA0 SHL SUB AND DUP2 JUMP JUMPDEST PUSH2 0x2C3 PUSH2 0x2BE CALLDATASIZE PUSH1 0x4 PUSH2 0xBFC JUMP JUMPDEST PUSH2 0xAB1 JUMP JUMPDEST PUSH1 0x40 MLOAD SWAP1 ISZERO ISZERO DUP2 MSTORE PUSH1 0x20 ADD PUSH2 0x157 JUMP JUMPDEST PUSH2 0x143 PUSH2 0x2E1 CALLDATASIZE PUSH1 0x4 PUSH2 0xC1E JUMP JUMPDEST PUSH2 0xB15 JUMP JUMPDEST PUSH1 0x0 SLOAD PUSH1 0x1 PUSH1 0x1 PUSH1 0xA0 SHL SUB AND CALLER EQ PUSH2 0x319 JUMPI PUSH1 0x40 MLOAD PUSH3 0x461BCD PUSH1 0xE5 SHL DUP2 MSTORE PUSH1 0x4 ADD PUSH2 0x310 SWAP1 PUSH2 0xC8D JUMP JUMPDEST PUSH1 0x40 MLOAD DUP1 SWAP2 SUB SWAP1 REVERT JUMPDEST PUSH1 0x5 DUP1 SLOAD PUSH1 0x1 DUP2 ADD DUP3 SSTORE PUSH1 0x0 SWAP2 SWAP1 SWAP2 MSTORE PUSH32 0x36B6384B5ECA791C62761152D0C79BB0604C104A5FB6F4EB0703F3154BB3DB0 ADD DUP1 SLOAD PUSH1 0x1 PUSH1 0x1 PUSH1 0xA0 SHL SUB NOT AND PUSH1 0x1 PUSH1 0x1 PUSH1 0xA0 SHL SUB SWAP3 SWAP1 SWAP3 AND SWAP2 SWAP1 SWAP2 OR SWAP1 SSTORE JUMP JUMPDEST PUSH1 0x5 DUP2 DUP2 SLOAD DUP2 LT PUSH2 0x37B JUMPI PUSH1 0x0 DUP1 REVERT JUMPDEST PUSH1 0x0 SWAP2 DUP3 MSTORE PUSH1 0x20 SWAP1 SWAP2 KECCAK256 ADD SLOAD PUSH1 0x1 PUSH1 0x1 PUSH1 0xA0 SHL SUB AND SWAP1 POP DUP2 JUMP JUMPDEST PUSH1 0x0 SLOAD PUSH1 0x1 PUSH1 0x1 PUSH1 0xA0 SHL SUB AND CALLER EQ PUSH2 0x3BF JUMPI PUSH1 0x40 MLOAD PUSH3 0x461BCD PUSH1 0xE5 SHL DUP2 MSTORE PUSH1 0x4 ADD PUSH2 0x310 SWAP1 PUSH2 0xC8D JUMP JUMPDEST PUSH2 0x3C9 PUSH1 0x0 PUSH2 0xB25 JUMP JUMPDEST JUMP JUMPDEST PUSH1 0x1 PUSH1 0x1 PUSH1 0xA0 SHL SUB DUP3 AND PUSH1 0x0 SWAP1 DUP2 MSTORE PUSH1 0x2 PUSH1 0x20 MSTORE PUSH1 0x40 DUP2 KECCAK256 SLOAD PUSH2 0x3F0 JUMPI POP PUSH1 0x0 PUSH2 0x44C JUMP JUMPDEST PUSH1 0x0 DUP1 PUSH2 0x3FC DUP5 PUSH2 0x918 JUMP JUMPDEST SWAP1 SWAP3 POP SWAP1 POP PUSH2 0x40C DUP2 PUSH1 0xA PUSH2 0xDBC JUMP JUMPDEST PUSH1 0x1 PUSH1 0x1 PUSH1 0xA0 SHL SUB DUP1 DUP7 AND PUSH1 0x0 SWAP1 DUP2 MSTORE PUSH1 0x1 PUSH1 0x20 SWAP1 DUP2 MSTORE PUSH1 0x40 DUP1 DUP4 KECCAK256 SWAP4 DUP11 AND DUP4 MSTORE SWAP3 SWAP1 MSTORE KECCAK256 SLOAD PUSH2 0x43D SWAP1 DUP5 SWAP1 PUSH2 0xDC8 JUMP JUMPDEST PUSH2 0x447 SWAP2 SWAP1 PUSH2 0xDE7 JUMP JUMPDEST SWAP3 POP POP POP JUMPDEST SWAP3 SWAP2 POP POP JUMP JUMPDEST PUSH1 0x0 DUP3 GT PUSH2 0x4A2 JUMPI PUSH1 0x40 MLOAD PUSH3 0x461BCD PUSH1 0xE5 SHL DUP2 MSTORE PUSH1 0x20 PUSH1 0x4 DUP3 ADD MSTORE PUSH1 0x1D PUSH1 0x24 DUP3 ADD MSTORE PUSH32 0x414D6F756E74206D757374206265206D6F7265207468616E207A65726F000000 PUSH1 0x44 DUP3 ADD MSTORE PUSH1 0x64 ADD PUSH2 0x310 JUMP JUMPDEST PUSH2 0x4AB DUP2 PUSH2 0xAB1 JUMP JUMPDEST PUSH2 0x501 JUMPI PUSH1 0x40 MLOAD PUSH3 0x461BCD PUSH1 0xE5 SHL DUP2 MSTORE PUSH1 0x20 PUSH1 0x4 DUP3 ADD MSTORE PUSH1 0x21 PUSH1 0x24 DUP3 ADD MSTORE PUSH32 0x5468697320746F6B656E2063757272656E746C79206E6F7420616C6C6F776564 PUSH1 0x44 DUP3 ADD MSTORE PUSH1 0x21 PUSH1 0xF8 SHL PUSH1 0x64 DUP3 ADD MSTORE PUSH1 0x84 ADD PUSH2 0x310 JUMP JUMPDEST PUSH1 0x40 MLOAD PUSH4 0x23B872DD PUSH1 0xE0 SHL DUP2 MSTORE CALLER PUSH1 0x4 DUP3 ADD MSTORE ADDRESS PUSH1 0x24 DUP3 ADD MSTORE PUSH1 0x44 DUP2 ADD DUP4 SWAP1 MSTORE PUSH1 0x1 PUSH1 0x1 PUSH1 0xA0 SHL SUB DUP3 AND SWAP1 PUSH4 0x23B872DD SWAP1 PUSH1 0x64 ADD PUSH1 0x20 PUSH1 0x40 MLOAD DUP1 DUP4 SUB DUP2 PUSH1 0x0 DUP8 GAS CALL ISZERO DUP1 ISZERO PUSH2 0x554 JUMPI RETURNDATASIZE PUSH1 0x0 DUP1 RETURNDATACOPY RETURNDATASIZE PUSH1 0x0 REVERT JUMPDEST POP POP POP POP PUSH1 0x40 MLOAD RETURNDATASIZE PUSH1 0x1F NOT PUSH1 0x1F DUP3 ADD AND DUP3 ADD DUP1 PUSH1 0x40 MSTORE POP DUP2 ADD SWAP1 PUSH2 0x578 SWAP2 SWAP1 PUSH2 0xE09 JUMP JUMPDEST POP PUSH2 0x583 CALLER DUP3 PUSH2 0xB75 JUMP JUMPDEST PUSH1 0x1 PUSH1 0x1 PUSH1 0xA0 SHL SUB DUP2 AND PUSH1 0x0 SWAP1 DUP2 MSTORE PUSH1 0x1 PUSH1 0x20 SWAP1 DUP2 MSTORE PUSH1 0x40 DUP1 DUP4 KECCAK256 CALLER DUP5 MSTORE SWAP1 SWAP2 MSTORE SWAP1 KECCAK256 SLOAD PUSH2 0x5B2 SWAP1 DUP4 SWAP1 PUSH2 0xE2B JUMP JUMPDEST PUSH1 0x1 PUSH1 0x1 PUSH1 0xA0 SHL SUB DUP3 AND PUSH1 0x0 SWAP1 DUP2 MSTORE PUSH1 0x1 PUSH1 0x20 DUP2 DUP2 MSTORE PUSH1 0x40 DUP1 DUP5 KECCAK256 CALLER DUP6 MSTORE DUP3 MSTORE DUP1 DUP5 KECCAK256 SWAP5 SWAP1 SWAP5 SSTORE PUSH1 0x2 SWAP1 MSTORE SWAP2 SWAP1 KECCAK256 SLOAD EQ ISZERO PUSH2 0x62A JUMPI PUSH1 0x4 DUP1 SLOAD PUSH1 0x1 DUP2 ADD DUP3 SSTORE PUSH1 0x0 SWAP2 SWAP1 SWAP2 MSTORE PUSH32 0x8A35ACFBC15FF81A39AE7D344FD709F28E8600B4AA8C65C6B64BFE7FE36BD19B ADD DUP1 SLOAD PUSH1 0x1 PUSH1 0x1 PUSH1 0xA0 SHL SUB NOT AND CALLER OR SWAP1 SSTORE JUMPDEST POP POP JUMP JUMPDEST PUSH1 0x0 SLOAD PUSH1 0x1 PUSH1 0x1 PUSH1 0xA0 SHL SUB AND CALLER EQ PUSH2 0x658 JUMPI PUSH1 0x40 MLOAD PUSH3 0x461BCD PUSH1 0xE5 SHL DUP2 MSTORE PUSH1 0x4 ADD PUSH2 0x310 SWAP1 PUSH2 0xC8D JUMP JUMPDEST PUSH1 0x0 JUMPDEST PUSH1 0x4 SLOAD DUP2 LT ISZERO PUSH2 0x728 JUMPI PUSH1 0x0 PUSH1 0x4 DUP3 DUP2 SLOAD DUP2 LT PUSH2 0x67A JUMPI PUSH2 0x67A PUSH2 0xE43 JUMP JUMPDEST PUSH1 0x0 SWAP2 DUP3 MSTORE PUSH1 0x20 DUP3 KECCAK256 ADD SLOAD PUSH1 0x1 PUSH1 0x1 PUSH1 0xA0 SHL SUB AND SWAP2 POP PUSH2 0x699 DUP3 PUSH2 0x783 JUMP JUMPDEST PUSH1 0x6 SLOAD PUSH1 0x40 MLOAD PUSH4 0xA9059CBB PUSH1 0xE0 SHL DUP2 MSTORE PUSH1 0x1 PUSH1 0x1 PUSH1 0xA0 SHL SUB DUP6 DUP2 AND PUSH1 0x4 DUP4 ADD MSTORE PUSH1 0x24 DUP3 ADD DUP5 SWAP1 MSTORE SWAP3 SWAP4 POP SWAP2 AND SWAP1 PUSH4 0xA9059CBB SWAP1 PUSH1 0x44 ADD PUSH1 0x20 PUSH1 0x40 MLOAD DUP1 DUP4 SUB DUP2 PUSH1 0x0 DUP8 GAS CALL ISZERO DUP1 ISZERO PUSH2 0x6EE JUMPI RETURNDATASIZE PUSH1 0x0 DUP1 RETURNDATACOPY RETURNDATASIZE PUSH1 0x0 REVERT JUMPDEST POP POP POP POP PUSH1 0x40 MLOAD RETURNDATASIZE PUSH1 0x1F NOT PUSH1 0x1F DUP3 ADD AND DUP3 ADD DUP1 PUSH1 0x40 MSTORE POP DUP2 ADD SWAP1 PUSH2 0x712 SWAP2 SWAP1 PUSH2 0xE09 JUMP JUMPDEST POP POP POP DUP1 DUP1 PUSH2 0x720 SWAP1 PUSH2 0xE59 JUMP JUMPDEST SWAP2 POP POP PUSH2 0x65B JUMP JUMPDEST POP JUMP JUMPDEST PUSH1 0x0 SLOAD PUSH1 0x1 PUSH1 0x1 PUSH1 0xA0 SHL SUB AND CALLER EQ PUSH2 0x755 JUMPI PUSH1 0x40 MLOAD PUSH3 0x461BCD PUSH1 0xE5 SHL DUP2 MSTORE PUSH1 0x4 ADD PUSH2 0x310 SWAP1 PUSH2 0xC8D JUMP JUMPDEST PUSH1 0x1 PUSH1 0x1 PUSH1 0xA0 SHL SUB SWAP2 DUP3 AND PUSH1 0x0 SWAP1 DUP2 MSTORE PUSH1 0x3 PUSH1 0x20 MSTORE PUSH1 0x40 SWAP1 KECCAK256 DUP1 SLOAD PUSH1 0x1 PUSH1 0x1 PUSH1 0xA0 SHL SUB NOT AND SWAP2 SWAP1 SWAP3 AND OR SWAP1 SSTORE JUMP JUMPDEST PUSH1 0x0 DUP1 DUP1 JUMPDEST PUSH1 0x5 SLOAD DUP2 LT ISZERO PUSH2 0x7E1 JUMPI PUSH2 0x7C3 DUP5 PUSH1 0x5 DUP4 DUP2 SLOAD DUP2 LT PUSH2 0x7A9 JUMPI PUSH2 0x7A9 PUSH2 0xE43 JUMP JUMPDEST PUSH1 0x0 SWAP2 DUP3 MSTORE PUSH1 0x20 SWAP1 SWAP2 KECCAK256 ADD SLOAD PUSH1 0x1 PUSH1 0x1 PUSH1 0xA0 SHL SUB AND PUSH2 0x3CB JUMP JUMPDEST PUSH2 0x7CD SWAP1 DUP4 PUSH2 0xE2B JUMP JUMPDEST SWAP2 POP DUP1 PUSH2 0x7D9 DUP2 PUSH2 0xE59 JUMP JUMPDEST SWAP2 POP POP PUSH2 0x788 JUMP JUMPDEST POP SWAP3 SWAP2 POP POP JUMP JUMPDEST PUSH1 0x1 PUSH1 0x1 PUSH1 0xA0 SHL SUB DUP2 AND PUSH1 0x0 SWAP1 DUP2 MSTORE PUSH1 0x1 PUSH1 0x20 SWAP1 DUP2 MSTORE PUSH1 0x40 DUP1 DUP4 KECCAK256 CALLER DUP5 MSTORE SWAP1 SWAP2 MSTORE SWAP1 KECCAK256 SLOAD DUP1 PUSH2 0x859 JUMPI PUSH1 0x40 MLOAD PUSH3 0x461BCD PUSH1 0xE5 SHL DUP2 MSTORE PUSH1 0x20 PUSH1 0x4 DUP3 ADD MSTORE PUSH1 0x1E PUSH1 0x24 DUP3 ADD MSTORE PUSH32 0x5374616B696E672042616C616E63652063616E6E6F74206265207A65726F0000 PUSH1 0x44 DUP3 ADD MSTORE PUSH1 0x64 ADD PUSH2 0x310 JUMP JUMPDEST PUSH1 0x40 MLOAD PUSH4 0xA9059CBB PUSH1 0xE0 SHL DUP2 MSTORE CALLER PUSH1 0x4 DUP3 ADD MSTORE PUSH1 0x24 DUP2 ADD DUP3 SWAP1 MSTORE PUSH1 0x1 PUSH1 0x1 PUSH1 0xA0 SHL SUB DUP4 AND SWAP1 PUSH4 0xA9059CBB SWAP1 PUSH1 0x44 ADD PUSH1 0x20 PUSH1 0x40 MLOAD DUP1 DUP4 SUB DUP2 PUSH1 0x0 DUP8 GAS CALL ISZERO DUP1 ISZERO PUSH2 0x8A6 JUMPI RETURNDATASIZE PUSH1 0x0 DUP1 RETURNDATACOPY RETURNDATASIZE PUSH1 0x0 REVERT JUMPDEST POP POP POP POP PUSH1 0x40 MLOAD RETURNDATASIZE PUSH1 0x1F NOT PUSH1 0x1F DUP3 ADD AND DUP3 ADD DUP1 PUSH1 0x40 MSTORE POP DUP2 ADD SWAP1 PUSH2 0x8CA SWAP2 SWAP1 PUSH2 0xE09 JUMP JUMPDEST POP PUSH1 0x1 PUSH1 0x1 PUSH1 0xA0 SHL SUB DUP3 AND PUSH1 0x0 SWAP1 DUP2 MSTORE PUSH1 0x1 PUSH1 0x20 DUP2 DUP2 MSTORE PUSH1 0x40 DUP1 DUP5 KECCAK256 CALLER DUP6 MSTORE DUP3 MSTORE DUP1 DUP5 KECCAK256 DUP5 SWAP1 SSTORE PUSH1 0x2 SWAP1 SWAP2 MSTORE SWAP1 SWAP2 KECCAK256 SLOAD PUSH2 0x904 SWAP2 SWAP1 PUSH2 0xE74 JUMP JUMPDEST CALLER PUSH1 0x0 SWAP1 DUP2 MSTORE PUSH1 0x2 PUSH1 0x20 MSTORE PUSH1 0x40 SWAP1 KECCAK256 SSTORE POP POP JUMP JUMPDEST PUSH1 0x1 PUSH1 0x1 PUSH1 0xA0 SHL SUB DUP1 DUP3 AND PUSH1 0x0 SWAP1 DUP2 MSTORE PUSH1 0x3 PUSH1 0x20 MSTORE PUSH1 0x40 DUP1 DUP3 KECCAK256 SLOAD DUP2 MLOAD PUSH4 0x3FABE5A3 PUSH1 0xE2 SHL DUP2 MSTORE SWAP2 MLOAD SWAP3 SWAP4 DUP5 SWAP4 SWAP2 AND SWAP2 DUP3 SWAP2 DUP5 SWAP2 DUP4 SWAP2 PUSH4 0xFEAF968C SWAP2 PUSH1 0x4 DUP1 DUP3 ADD SWAP3 PUSH1 0xA0 SWAP3 SWAP1 SWAP2 SWAP1 DUP3 SWAP1 SUB ADD DUP2 DUP7 GAS STATICCALL ISZERO DUP1 ISZERO PUSH2 0x979 JUMPI RETURNDATASIZE PUSH1 0x0 DUP1 RETURNDATACOPY RETURNDATASIZE PUSH1 0x0 REVERT JUMPDEST POP POP POP POP PUSH1 0x40 MLOAD RETURNDATASIZE PUSH1 0x1F NOT PUSH1 0x1F DUP3 ADD AND DUP3 ADD DUP1 PUSH1 0x40 MSTORE POP DUP2 ADD SWAP1 PUSH2 0x99D SWAP2 SWAP1 PUSH2 0xEA5 JUMP JUMPDEST POP POP POP SWAP2 POP POP PUSH1 0x0 DUP3 PUSH1 0x1 PUSH1 0x1 PUSH1 0xA0 SHL SUB AND PUSH4 0x313CE567 PUSH1 0x40 MLOAD DUP2 PUSH4 0xFFFFFFFF AND PUSH1 0xE0 SHL DUP2 MSTORE PUSH1 0x4 ADD PUSH1 0x20 PUSH1 0x40 MLOAD DUP1 DUP4 SUB DUP2 DUP7 GAS STATICCALL ISZERO DUP1 ISZERO PUSH2 0x9E3 JUMPI RETURNDATASIZE PUSH1 0x0 DUP1 RETURNDATACOPY RETURNDATASIZE PUSH1 0x0 REVERT JUMPDEST POP POP POP POP PUSH1 0x40 MLOAD RETURNDATASIZE PUSH1 0x1F NOT PUSH1 0x1F DUP3 ADD AND DUP3 ADD DUP1 PUSH1 0x40 MSTORE POP DUP2 ADD SWAP1 PUSH2 0xA07 SWAP2 SWAP1 PUSH2 0xEF5 JUMP JUMPDEST SWAP2 SWAP8 PUSH1 0xFF SWAP1 SWAP3 AND SWAP7 POP SWAP1 SWAP5 POP POP POP POP POP JUMP JUMPDEST PUSH1 0x0 SLOAD PUSH1 0x1 PUSH1 0x1 PUSH1 0xA0 SHL SUB AND CALLER EQ PUSH2 0xA43 JUMPI PUSH1 0x40 MLOAD PUSH3 0x461BCD PUSH1 0xE5 SHL DUP2 MSTORE PUSH1 0x4 ADD PUSH2 0x310 SWAP1 PUSH2 0xC8D JUMP JUMPDEST PUSH1 0x1 PUSH1 0x1 PUSH1 0xA0 SHL SUB DUP2 AND PUSH2 0xAA8 JUMPI PUSH1 0x40 MLOAD PUSH3 0x461BCD PUSH1 0xE5 SHL DUP2 MSTORE PUSH1 0x20 PUSH1 0x4 DUP3 ADD MSTORE PUSH1 0x26 PUSH1 0x24 DUP3 ADD MSTORE PUSH32 0x4F776E61626C653A206E6577206F776E657220697320746865207A65726F2061 PUSH1 0x44 DUP3 ADD MSTORE PUSH6 0x646472657373 PUSH1 0xD0 SHL PUSH1 0x64 DUP3 ADD MSTORE PUSH1 0x84 ADD PUSH2 0x310 JUMP JUMPDEST PUSH2 0x728 DUP2 PUSH2 0xB25 JUMP JUMPDEST PUSH1 0x0 DUP1 JUMPDEST PUSH1 0x5 SLOAD DUP2 LT ISZERO PUSH2 0xB0C JUMPI PUSH1 0x5 DUP2 DUP2 SLOAD DUP2 LT PUSH2 0xAD2 JUMPI PUSH2 0xAD2 PUSH2 0xE43 JUMP JUMPDEST PUSH1 0x0 SWAP2 DUP3 MSTORE PUSH1 0x20 SWAP1 SWAP2 KECCAK256 ADD SLOAD PUSH1 0x1 PUSH1 0x1 PUSH1 0xA0 SHL SUB DUP5 DUP2 AND SWAP2 AND EQ ISZERO PUSH2 0xAFA JUMPI POP PUSH1 0x1 SWAP3 SWAP2 POP POP JUMP JUMPDEST DUP1 PUSH2 0xB04 DUP2 PUSH2 0xE59 JUMP JUMPDEST SWAP2 POP POP PUSH2 0xAB5 JUMP JUMPDEST POP PUSH1 0x0 SWAP3 SWAP2 POP POP JUMP JUMPDEST PUSH1 0x4 DUP2 DUP2 SLOAD DUP2 LT PUSH2 0x37B JUMPI PUSH1 0x0 DUP1 REVERT JUMPDEST PUSH1 0x0 DUP1 SLOAD PUSH1 0x1 PUSH1 0x1 PUSH1 0xA0 SHL SUB DUP4 DUP2 AND PUSH1 0x1 PUSH1 0x1 PUSH1 0xA0 SHL SUB NOT DUP4 AND DUP2 OR DUP5 SSTORE PUSH1 0x40 MLOAD SWAP2 SWAP1 SWAP3 AND SWAP3 DUP4 SWAP2 PUSH32 0x8BE0079C531659141344CD1FD0A4F28419497F9722A3DAAFE3B4186F6B6457E0 SWAP2 SWAP1 LOG3 POP POP JUMP JUMPDEST PUSH1 0x1 PUSH1 0x1 PUSH1 0xA0 SHL SUB DUP1 DUP3 AND PUSH1 0x0 SWAP1 DUP2 MSTORE PUSH1 0x1 PUSH1 0x20 SWAP1 DUP2 MSTORE PUSH1 0x40 DUP1 DUP4 KECCAK256 SWAP4 DUP7 AND DUP4 MSTORE SWAP3 SWAP1 MSTORE KECCAK256 SLOAD PUSH2 0x62A JUMPI PUSH1 0x1 PUSH1 0x1 PUSH1 0xA0 SHL SUB DUP3 AND PUSH1 0x0 SWAP1 DUP2 MSTORE PUSH1 0x2 PUSH1 0x20 MSTORE PUSH1 0x40 SWAP1 KECCAK256 SLOAD PUSH2 0xBC3 SWAP1 PUSH1 0x1 PUSH2 0xE2B JUMP JUMPDEST PUSH1 0x1 PUSH1 0x1 PUSH1 0xA0 SHL SUB DUP4 AND PUSH1 0x0 SWAP1 DUP2 MSTORE PUSH1 0x2 PUSH1 0x20 MSTORE PUSH1 0x40 SWAP1 KECCAK256 SSTORE POP POP JUMP JUMPDEST DUP1 CALLDATALOAD PUSH1 0x1 PUSH1 0x1 PUSH1 0xA0 SHL SUB DUP2 AND DUP2 EQ PUSH2 0xBF7 JUMPI PUSH1 0x0 DUP1 REVERT JUMPDEST SWAP2 SWAP1 POP JUMP JUMPDEST PUSH1 0x0 PUSH1 0x20 DUP3 DUP5 SUB SLT ISZERO PUSH2 0xC0E JUMPI PUSH1 0x0 DUP1 REVERT JUMPDEST PUSH2 0xC17 DUP3 PUSH2 0xBE0 JUMP JUMPDEST SWAP4 SWAP3 POP POP POP JUMP JUMPDEST PUSH1 0x0 PUSH1 0x20 DUP3 DUP5 SUB SLT ISZERO PUSH2 0xC30 JUMPI PUSH1 0x0 DUP1 REVERT JUMPDEST POP CALLDATALOAD SWAP2 SWAP1 POP JUMP JUMPDEST PUSH1 0x0 DUP1 PUSH1 0x40 DUP4 DUP6 SUB SLT ISZERO PUSH2 0xC4A JUMPI PUSH1 0x0 DUP1 REVERT JUMPDEST PUSH2 0xC53 DUP4 PUSH2 0xBE0 JUMP JUMPDEST SWAP2 POP PUSH2 0xC61 PUSH1 0x20 DUP5 ADD PUSH2 0xBE0 JUMP JUMPDEST SWAP1 POP SWAP3 POP SWAP3 SWAP1 POP JUMP JUMPDEST PUSH1 0x0 DUP1 PUSH1 0x40 DUP4 DUP6 SUB SLT ISZERO PUSH2 0xC7D JUMPI PUSH1 0x0 DUP1 REVERT JUMPDEST DUP3 CALLDATALOAD SWAP2 POP PUSH2 0xC61 PUSH1 0x20 DUP5 ADD PUSH2 0xBE0 JUMP JUMPDEST PUSH1 0x20 DUP1 DUP3 MSTORE DUP2 DUP2 ADD MSTORE PUSH32 0x4F776E61626C653A2063616C6C6572206973206E6F7420746865206F776E6572 PUSH1 0x40 DUP3 ADD MSTORE PUSH1 0x60 ADD SWAP1 JUMP JUMPDEST PUSH4 0x4E487B71 PUSH1 0xE0 SHL PUSH1 0x0 MSTORE PUSH1 0x11 PUSH1 0x4 MSTORE PUSH1 0x24 PUSH1 0x0 REVERT JUMPDEST PUSH1 0x1 DUP2 DUP2 JUMPDEST DUP1 DUP6 GT ISZERO PUSH2 0xD13 JUMPI DUP2 PUSH1 0x0 NOT DIV DUP3 GT ISZERO PUSH2 0xCF9 JUMPI PUSH2 0xCF9 PUSH2 0xCC2 JUMP JUMPDEST DUP1 DUP6 AND ISZERO PUSH2 0xD06 JUMPI SWAP2 DUP2 MUL SWAP2 JUMPDEST SWAP4 DUP5 SHR SWAP4 SWAP1 DUP1 MUL SWAP1 PUSH2 0xCDD JUMP JUMPDEST POP SWAP3 POP SWAP3 SWAP1 POP JUMP JUMPDEST PUSH1 0x0 DUP3 PUSH2 0xD2A JUMPI POP PUSH1 0x1 PUSH2 0x44C JUMP JUMPDEST DUP2 PUSH2 0xD37 JUMPI POP PUSH1 0x0 PUSH2 0x44C JUMP JUMPDEST DUP2 PUSH1 0x1 DUP2 EQ PUSH2 0xD4D JUMPI PUSH1 0x2 DUP2 EQ PUSH2 0xD57 JUMPI PUSH2 0xD73 JUMP JUMPDEST PUSH1 0x1 SWAP2 POP POP PUSH2 0x44C JUMP JUMPDEST PUSH1 0xFF DUP5 GT ISZERO PUSH2 0xD68 JUMPI PUSH2 0xD68 PUSH2 0xCC2 JUMP JUMPDEST POP POP PUSH1 0x1 DUP3 SHL PUSH2 0x44C JUMP JUMPDEST POP PUSH1 0x20 DUP4 LT PUSH2 0x133 DUP4 LT AND PUSH1 0x4E DUP5 LT PUSH1 0xB DUP5 LT AND OR ISZERO PUSH2 0xD96 JUMPI POP DUP2 DUP2 EXP PUSH2 0x44C JUMP JUMPDEST PUSH2 0xDA0 DUP4 DUP4 PUSH2 0xCD8 JUMP JUMPDEST DUP1 PUSH1 0x0 NOT DIV DUP3 GT ISZERO PUSH2 0xDB4 JUMPI PUSH2 0xDB4 PUSH2 0xCC2 JUMP JUMPDEST MUL SWAP4 SWAP3 POP POP POP JUMP JUMPDEST PUSH1 0x0 PUSH2 0xC17 DUP4 DUP4 PUSH2 0xD1B JUMP JUMPDEST PUSH1 0x0 DUP2 PUSH1 0x0 NOT DIV DUP4 GT DUP3 ISZERO ISZERO AND ISZERO PUSH2 0xDE2 JUMPI PUSH2 0xDE2 PUSH2 0xCC2 JUMP JUMPDEST POP MUL SWAP1 JUMP JUMPDEST PUSH1 0x0 DUP3 PUSH2 0xE04 JUMPI PUSH4 0x4E487B71 PUSH1 0xE0 SHL PUSH1 0x0 MSTORE PUSH1 0x12 PUSH1 0x4 MSTORE PUSH1 0x24 PUSH1 0x0 REVERT JUMPDEST POP DIV SWAP1 JUMP JUMPDEST PUSH1 0x0 PUSH1 0x20 DUP3 DUP5 SUB SLT ISZERO PUSH2 0xE1B JUMPI PUSH1 0x0 DUP1 REVERT JUMPDEST DUP2 MLOAD DUP1 ISZERO ISZERO DUP2 EQ PUSH2 0xC17 JUMPI PUSH1 0x0 DUP1 REVERT JUMPDEST PUSH1 0x0 DUP3 NOT DUP3 GT ISZERO PUSH2 0xE3E JUMPI PUSH2 0xE3E PUSH2 0xCC2 JUMP JUMPDEST POP ADD SWAP1 JUMP JUMPDEST PUSH4 0x4E487B71 PUSH1 0xE0 SHL PUSH1 0x0 MSTORE PUSH1 0x32 PUSH1 0x4 MSTORE PUSH1 0x24 PUSH1 0x0 REVERT JUMPDEST PUSH1 0x0 PUSH1 0x0 NOT DUP3 EQ ISZERO PUSH2 0xE6D JUMPI PUSH2 0xE6D PUSH2 0xCC2 JUMP JUMPDEST POP PUSH1 0x1 ADD SWAP1 JUMP JUMPDEST PUSH1 0x0 DUP3 DUP3 LT ISZERO PUSH2 0xE86 JUMPI PUSH2 0xE86 PUSH2 0xCC2 JUMP JUMPDEST POP SUB SWAP1 JUMP JUMPDEST DUP1 MLOAD PUSH10 0xFFFFFFFFFFFFFFFFFFFF DUP2 AND DUP2 EQ PUSH2 0xBF7 JUMPI PUSH1 0x0 DUP1 REVERT JUMPDEST PUSH1 0x0 DUP1 PUSH1 0x0 DUP1 PUSH1 0x0 PUSH1 0xA0 DUP7 DUP9 SUB SLT ISZERO PUSH2 0xEBD JUMPI PUSH1 0x0 DUP1 REVERT JUMPDEST PUSH2 0xEC6 DUP7 PUSH2 0xE8B JUMP JUMPDEST SWAP5 POP PUSH1 0x20 DUP7 ADD MLOAD SWAP4 POP PUSH1 0x40 DUP7 ADD MLOAD SWAP3 POP PUSH1 0x60 DUP7 ADD MLOAD SWAP2 POP PUSH2 0xEE9 PUSH1 0x80 DUP8 ADD PUSH2 0xE8B JUMP JUMPDEST SWAP1 POP SWAP3 SWAP6 POP SWAP3 SWAP6 SWAP1 SWAP4 POP JUMP JUMPDEST PUSH1 0x0 PUSH1 0x20 DUP3 DUP5 SUB SLT ISZERO PUSH2 0xF07 JUMPI PUSH1 0x0 DUP1 REVERT JUMPDEST DUP2 MLOAD PUSH1 0xFF DUP2 AND DUP2 EQ PUSH2 0xC17 JUMPI PUSH1 0x0 DUP1 REVERT INVALID LOG2 PUSH5 0x6970667358 0x22 SLT KECCAK256 0xDB SDIV JUMP 0x5F CALLDATALOAD 0xE4 ORIGIN 0x29 DUP16 EXTCODESIZE DUP3 STOP 0xE7 ADD NOT DUP12 0xDC CODESIZE 0xB6 CODESIZE OR 0x1E 0xB1 LOG2 0x4F 0x24 0xF7 PUSH1 0x43 0xD0 RETURN SWAP3 PUSH5 0x736F6C6343 STOP ADDMOD SIGNEXTEND STOP CALLER ","sha1":"fb87a086368774cbad50cdacf7edcab9698a4181","source":"// SPDX-License-Identifier: MIT\npragma solidity ^0.8.0;\n\nimport \"@openzeppelin/contracts/access/Ownable.sol\";\nimport \"@openzeppelin/contracts/token/ERC20/IERC20.sol\";\nimport \"@chainlink/contracts/src/v0.8/interfaces/AggregatorV3Interface.sol\";\n\ncontract TokenFarm is Ownable {\n    /// stakeToken\n    /// unStakeToken\n    /// issueToken\n    /// addAllowedToken\n    /// getETHValue\n    mapping(address => mapping(address => uint256))\n        public tokenToStakerToAmount;\n    mapping(address => uint256) public uniqueTokensStaked;\n    mapping(address => address) public tokenToPriceFeedAddress;\n    address[] public stakers;\n    address[] public allowedTokens;\n    IERC20 public dappToken;\n\n    constructor(address _dappTOkenAdress) public {\n        dappToken = IERC20(_dappTOkenAdress);\n    }\n\n    function setPriceFeedAddress(address _token, address _priceFeed)\n        public\n        onlyOwner\n    {\n        tokenToPriceFeedAddress[_token] = _priceFeed;\n    }\n\n    function issueToken() public onlyOwner {\n        for (\n            uint256 stakersIndex = 0;\n            stakersIndex < stakers.length;\n            stakersIndex++\n        ) {\n            address recepient = stakers[stakersIndex];\n            uint256 userTotalValue = getUserTotalValue(recepient);\n            dappToken.transfer(recepient, userTotalValue);\n        }\n    }\n\n    function getUserTotalValue(address _recepient)\n        public\n        view\n        returns (uint256)\n    {\n        uint256 totalValue = 0;\n        for (\n            uint256 allowedTotalIndex;\n            allowedTotalIndex < allowedTokens.length;\n            allowedTotalIndex++\n        ) {\n            totalValue =\n                totalValue +\n                getUserSingleTokenTotalValue(\n                    _recepient,\n                    allowedTokens[allowedTotalIndex]\n                );\n        }\n        return totalValue;\n    }\n\n    function getUserSingleTokenTotalValue(address _recepient, address _token)\n        public\n        view\n        returns (uint256)\n    {\n        // if 1 ETH is USD 2500, then it should return 2500\n        // if it has 200 DAI then it should return 200\n        if (uniqueTokensStaked[_recepient] <= 0) {\n            return 0;\n        }\n        //we need price of the token, then multiplied to tokenToStakerToAmount[token][user]\n        (uint256 price, uint256 decimals) = getTokenValue(_token);\n        return ((tokenToStakerToAmount[_token][_recepient] * price) /\n            10**decimals);\n    }\n\n    function getTokenValue(address _token)\n        public\n        view\n        returns (uint256, uint256)\n    {\n        // create pricefeed object\n        //address\n        //abi\n        address priceFeedAddress = tokenToPriceFeedAddress[_token];\n        AggregatorV3Interface priceFeed = AggregatorV3Interface(\n            priceFeedAddress\n        );\n        (, int256 price, , , ) = priceFeed.latestRoundData();\n        uint256 decimals = priceFeed.decimals();\n        return (uint256(price), decimals);\n    }\n\n    function stakeToken(uint256 _amount, address _token) public {\n        //what tokens can they stake\n        //how much can they stake\n        require(_amount > 0, \"AMount must be more than zero\");\n        require(isTokenAllowed(_token), \"This token currently not allowed!\");\n        IERC20(_token).transferFrom(msg.sender, address(this), _amount);\n        updateUniqueTokensStaked(msg.sender, _token);\n        tokenToStakerToAmount[_token][msg.sender] =\n            tokenToStakerToAmount[_token][msg.sender] +\n            _amount;\n        if (uniqueTokensStaked[msg.sender] == 1) {\n            stakers.push(msg.sender);\n        }\n    }\n\n    function updateUniqueTokensStaked(address _user, address _token) internal {\n        if (tokenToStakerToAmount[_token][_user] <= 0) {\n            uniqueTokensStaked[_user] = uniqueTokensStaked[_user] + 1;\n        }\n    }\n\n    function addAllowedTokens(address _token) public onlyOwner {\n        allowedTokens.push(_token);\n    }\n\n    function isTokenAllowed(address _token) public view returns (bool) {\n        for (\n            uint256 tokenIndex = 0;\n            tokenIndex < allowedTokens.length;\n            tokenIndex++\n        ) {\n            if (_token == allowedTokens[tokenIndex]) {\n                return true;\n            }\n        }\n        return false;\n    }\n\n    function unStakeTokens(address _token) public {\n        uint256 balance = tokenToStakerToAmount[_token][msg.sender];\n        require(balance > 0, \"Staking Balance cannot be zero\");\n        IERC20(_token).transfer(msg.sender, balance);\n        tokenToStakerToAmount[_token][msg.sender] = 0;\n        //Re-Entrancy Attack ????\n        uniqueTokensStaked[msg.sender] = uniqueTokensStaked[msg.sender] - 1;\n    }\n}\n","sourcePath":"contracts/TokenFarm.sol","type":"contract","deployment":{"address":"0x934DF168E35C97afEAfA25B29a729E2982A43650","chainid":"42","blockHeight":30363693}}